S015000041767243616C63536F757263652E7372656302
S11300000C942A000C9447000C9447000C9447006D
S11300100C9447000C9447000C9447000C94470040
S11300200C9447000C9447000C9474000C94470003
S11300300C9447000C9447000C9447000C94470020
S11300400C9447000C9447000C9447000C94470010
S11300500C94470011241FBECFE5D8E0DEBFCDBF0E
S113006010E0A0E6B0E0E4E3F1E002C005900D92F8
S1130070A036B107D9F720E0A0E6B0E001C01D9298
S1130080A83AB207E1F70E9449000C9498000C9436
S11300900000FFCFCF93DF93409160005091610047
S11300A014161506F4F4E4E6F0E0A8E6B0E080E007
S11300B090E0208131812115310569F02150310909
S11300C031832083232B39F42C912F5F2C932281AD
S11300D033813183208301963796179684179507C9
S11300E044F3DF91CF9108951F920F920FB60F92B0
S11300F011242F933F934F935F936F937F938F9329
S11301009F93AF93BF93EF93FF930E944A00FF9195
S1130110EF91BF91AF919F918F917F916F915F917B
S11301204F913F912F910F900FBE0F901F901895F4
S1070130F894FFCF6D
S9030000FC
