:100000000C942C000C9454000C9454000C94540048
:100010000C9454000C9454000C9454000C94540010
:100020000C9454000C9454000C9428070C94540025
:100030000C9454000C9454000C9454000C945400F0
:100040000C9454000C9454000C9454000C945400E0
:100050000C94540071027E0211241FBECFE5D8E03B
:10006000DEBFCDBF10E0A0E6B0E0EEECFEE002C0E7
:1000700005900D92A838B107D9F721E0A8E8B0E0C3
:1000800001C01D92AC39B207E1F710E0C6E5D0E03F
:1000900004C02297FE010E945607C435D107C9F754
:1000A0000E94CA000C945A070C940000CF93DF936F
:1000B00000D0CDB7DEB79A83898389819A81FC010C
:1000C00080810F900F90DF91CF910895CF93DF93B0
:1000D00000D0CDB7DEB79A83898389819A81FC01EC
:1000E00081810F900F90DF91CF910895CF93DF938F
:1000F00000D0CDB7DEB79A83898389819A810E9427
:100100005600282F30E0809160009091610041E01E
:100110002817390709F040E0842F0F900F90DF91E6
:10012000CF910895CF93DF9300D0CDB7DEB79A83F8
:10013000898389819A810E945600282F30E080911E
:1001400062009091630041E02817390709F040E010
:10015000842F0F900F90DF91CF910895CF93DF936D
:1001600000D0CDB7DEB79A83898389819A810E94B6
:100170005600282F30E0809164009091650041E0A6
:100180002817390709F040E0842F0F900F90DF9176
:10019000CF910895CF93DF93CDB7DEB70E94D30000
:1001A0000E942301FDCFCF93DF93CDB7DEB7CB54B1
:1001B000D1090FB6F894DEBF0FBECDBFCE01849635
:1001C0000E94030488E2FE01B496A9E0B1E0019028
:1001D0000D928A95E1F7CE0184960E943D04CE01EE
:1001E0004A960E9425068AE0FE017A96A1E3B1E0D4
:1001F00001900D928A95E1F7CE014A960E9435064C
:10020000CE0102960E948B0288E1FE013296ABE39A
:10021000B1E001900D928A95E1F7CE0102960E941D
:10022000B802CE0101960E94DF05CE0101960E9420
:10023000EB05C55BDF4F0FB6F894DEBF0FBECDBF39
:10024000DF91CF910895CF93DF9300D0CDB7DEB784
:1002500089E091E00E9449049A83898389819A8187
:100260000E9437010F900F90DF91CF910895CF93A7
:10027000DF9300D000D0CDB7DEB79C838B83CE0157
:1002800003960E946600982F81E0992309F080E090
:10029000882309F07EC0CE0103960E946600982F45
:1002A00081E0913009F080E0882329F08B819C81E6
:1002B0000E94D1016FC08C81853029F48B819C8193
:1002C0000E94010267C0CE0103960E946600982F2B
:1002D00081E0933009F080E0882341F08BE391E0E6
:1002E0000E94C80283E591E00E94F705CE010396C3
:1002F0000E946600982F81E0923009F080E0882308
:1003000099F1CE0103960E947600882349F08BE391
:1003100091E00E94F502BC0181E391E00E94450654
:10032000CE0103960E9492008823A1F081E391E020
:100330000E9461069A83898389819A81BC018BE33B
:1003400091E00E94030389819A81BC0183E591E0D9
:100350000E940306CE0103960E94AE00882321F07E
:1003600081E391E00E946F06CE0103960E94660031
:10037000982F81E0943009F080E0882359F08BE3D6
:1003800091E00E94F502BC0183E591E00E94140611
:1003900001C000000F900F900F900F90DF91CF9150
:1003A00008950F931F93CF93DF9300D0CDB7DEB79F
:1003B0009A8389839091080181E08927882349F0F5
:1003C00080916600909167000196909367008093FA
:1003D00066000091660010916700CE0101960E94B0
:1003E0005600282FC80188579F4FFC01208381E0C9
:1003F000809308010F900F90DF91CF911F910F9183
:1004000008950F931F93CF93DF9300D0CDB7DEB73E
:100410009A838983809166009091670001969093FA
:100420006700809366000091660010916700CE011E
:1004300001960E945600282F205DC80188579F4FC3
:10044000FC012083109208010F900F90DF91CF9153
:100450001F910F910895CF93DF9300D000D0CDB7B7
:10046000DEB79A8389837C836B8389819A8181300B
:100470009105B1F48B819C818F3F2FEF920781F41E
:1004800089E091E00E94030481E391E00E94250647
:100490008BE391E00E948B0283E591E00E94DF05EF
:1004A00089819A810097B1F48B819C818F3F2FEFD6
:1004B000920781F483E591E00E94EB058BE391E0E4
:1004C0000E94B80281E391E00E94350689E091E044
:1004D0000E943D040F900F900F900F90DF91CF91ED
:1004E0000895CF93DF93CDB7DEB76FEF7FEF81E055
:1004F00090E00E942B02DF91CF910895CF93DF937C
:10050000CDB7DEB76FEF7FEF80E090E00E942B0267
:10051000DF91CF910895CF93DF93CDB7DEB72C97BE
:100520000FB6F894DEBF0FBECDBF9C878B878B853F
:100530009C850E941403CE0101960E9414038B85B2
:100540009C854AE09E012F5F3F4FF901DC0101903D
:100550000D924A95E1F7CE0101960E9420032C9658
:100560000FB6F894DEBF0FBECDBFDF91CF910895D7
:10057000CF93DF9300D0CDB7DEB79A83898389818B
:100580009A810E9420030F900F90DF91CF910895E0
:10059000CF93DF9300D0CDB7DEB79A83898389816B
:1005A0009A81FC01128613861486158689819A81A8
:1005B000FC0116861786108A118A89819A81FC01AE
:1005C000128A138A148A158A89819A81FC01168AF3
:1005D00089819A81FC01178A89819A810E942C0362
:1005E0000F900F90DF91CF910895CF93DF9300D0BC
:1005F000CDB7DEB79A83898389819A810F900F9056
:10060000DF91CF910895CF93DF9300D000D0CDB785
:10061000DEB79A8389837C836B830F900F900F9052
:100620000F90DF91CF910895CF93DF9300D0CDB796
:10063000DEB79A8389830F900F90DF91CF91089551
:10064000CF93DF9300D0CDB7DEB79A8389830F9025
:100650000F90DF91CF910895CF93DF9300D000D01A
:10066000CDB7DEB79C838B831A8219820EC02B8193
:100670003C8189819A81820F931F0296FC0110822E
:1006800089819A8101969A83898321E089819A815F
:10069000883091050CF020E0222349F78B819C8162
:1006A000FC01118210820F900F900F900F90DF913C
:1006B000CF910895CF93DF9300D0CDB7DEB79A8363
:1006C000898389819A81FC0111820F900F90DF91BB
:1006D000CF910895CF93DF9300D01F92CDB7DEB7AF
:1006E0009A8389836B8389819A810E945A038981C5
:1006F0009A812B81FC01208389819A8121E0FC0170
:1007000021830F900F900F90DF91CF910895CF9399
:10071000DF9300D0CDB7DEB79A8389830F900F9017
:10072000DF91CF910895CF93DF9300D000D0CDB764
:10073000DEB79A8389837C836B8389819A810E9447
:100740005A032B8189819A81FC01208389819A81B6
:1007500022E0FC0121830F900F900F900F90DF910A
:10076000CF910895CF93DF9300D0CDB7DEB79A83B2
:10077000898389819A810E945A0389819A81FC0127
:10078000108289819A8123E0FC0121830F900F90D0
:10079000DF91CF910895CF93DF9300D0CDB7DEB72F
:1007A0009A83898389819A810E945A0389819A81D7
:1007B000FC01108289819A8124E0FC0121830F9041
:1007C0000F90DF91CF910895CF93DF9300D000D0A9
:1007D000CDB7DEB79A8389837C836B8389819A81C5
:1007E0000E945A032B8189819A81FC01208389818F
:1007F0009A8125E0FC0121830F900F900F900F90BC
:10080000DF91CF910895CF93DF9300D0CDB7DEB7BE
:100810009A83898389819A8120E1E8E6F0E0DC010E
:1008200001900D922A95E1F789819A8120E1E8E70C
:10083000F0E0DC01509601900D922A95E1F7898154
:100840009A812BE2FC0120A389819A812DE2FC018F
:1008500021A389819A812AE2FC0122A389819A81BC
:100860002FE2FC0123A389819A81FC0115A214A225
:100870000F900F90DF91CF910895CF93DF9300D029
:10088000CDB7DEB79A8389830F900F90DF91CF9118
:1008900008950F931F93CF93DF93CDB7DEB768977B
:1008A0000FB6F894DEBF0FBECDBF988F8F8B85E358
:1008B00090E0FC01108284E390E020EFFC012083B3
:1008C00085E390E02FE0FC0120831A82198205C0A5
:1008D00089819A8101969A83898321E089819A810D
:1008E000843691050CF020E0222391F783E390E019
:1008F000FC018081882F90E02F89388D820F931F13
:100900004096FC018081882F90E098878F8385E353
:1009100090E0FC01108284E390E02FE0FC01208352
:1009200085E390E020EFFC0120831C821B8205C040
:100930008B819C8101969C838B8321E08B819C81A0
:10094000843691050CF020E0222391F783E390E0B8
:10095000FC018081882F90E09595879595958795E6
:1009600095958795959587952F89388D820F931F3B
:100970004096FC018081882F90E09A87898789853D
:100980009A85009721F08F819885009749F41D8AF8
:100990001E8ACE0145960E945A030D891E89CAC03F
:1009A00089859A85AC01415051098F8198850197BD
:1009B0002F89388D440F551F440F551F840F951FE5
:1009C000820F931FFC018081282F30E08F89988D42
:1009D000FC0137A326A38F89988DFC0186A197A1DE
:1009E0008430910521F08F89988D0E94CC058F89E4
:1009F000988DFC0186A197A184309105B9F48F8967
:100A0000988D0E94A6052F89388D820F931F80969E
:100A1000FC012081CE014396622F0E946A030B895C
:100A20001C89CE0143960E94870384C08F89988DCC
:100A3000FC0186A197A1837099270097A9F48F895B
:100A4000988DFC0186A197A199230CF403969595A6
:100A50008795959587959C01CE014196B9010E9495
:100A6000930309891A8966C08F89988DFC0186A134
:100A700097A18D30910539F4CE010F960E94B203F3
:100A80000F85188957C08F89988DFC0186A197A181
:100A90008F30910539F4CE010D960E94CB030D8560
:100AA0001E8548C01E821D828F89988DFC0186A1FB
:100AB00097A18430910564F48F89988DFC0186A1FB
:100AC00097A12D813E81820F931F9E838D8329C024
:100AD0008F89988DFC0186A197A1883091056CF4CF
:100AE0008F89988DFC0186A197A101972D813E8168
:100AF000820F931F9E838D8314C08F89988DFC0174
:100B000086A197A18C30910564F48F89988DFC01A2
:100B100086A197A102972D813E81820F931F9E830C
:100B20008D832D813E81CE010B96B9010E94E40395
:100B30000B851C85C80168960FB6F894DEBF0FBE02
:100B4000CDBFDF91CF911F910F910895CF93DF9388
:100B500000D0CDB7DEB79A83898389819A81FC0161
:100B600084A195A19C012F5F3F4F89819A81FC014F
:100B700035A324A389819A81FC0184A195A1837066
:100B80009078992324F401978C6F9F6F01960F90B2
:100B90000F90DF91CF910895CF93DF9300D0CDB721
:100BA000DEB79A83898389819A8123E030E0FC0152
:100BB00035A324A30F900F90DF91CF910895CF9389
:100BC000DF9300D0CDB7DEB79A8389830F900F9063
:100BD000DF91CF910895CF93DF9300D0CDB7DEB7EB
:100BE0009A8389830F900F90DF91CF910895CF93CF
:100BF000DF9300D0CDB7DEB79A8389830F900F9033
:100C0000DF91CF910895CF93DF9300D000D0CDB77F
:100C1000DEB79A8389837C836B830F900F900F904C
:100C20000F90DF91CF910895CF93DF9300D000D044
:100C3000CDB7DEB79A8389837C836B830F900F9047
:100C40000F900F90DF91CF910895CF93DF9300D055
:100C5000CDB7DEB79A83898389819A810E94140374
:100C60000F900F90DF91CF910895CF93DF9300D035
:100C7000CDB7DEB79A83898389819A810E94200348
:100C80000F900F90DF91CF910895CF93DF9300D015
:100C900000D0CDB7DEB79A8389837C836B8389814B
:100CA0009A812B813C814AE0F901DC0101900D928F
:100CB0004A95E1F70F900F900F900F90DF91CF9131
:100CC0000895CF93DF9300D0CDB7DEB79A838983A1
:100CD00089819A810F900F90DF91CF910895CF93E2
:100CE000DF9300D0CDB7DEB79A83898389819A815B
:100CF0000E942C030F900F90DF91CF910895CF9316
:100D0000DF9300D0CDB7DEB71A8219828EC0298159
:100D10003A81C901880F991F880F991F880F991F61
:100D2000821B930B8A5A9E4FFC0180819181009710
:100D300009F476C029813A81C901880F991F880F6B
:100D4000991F880F991F821B930B8A5A9E4FFC0193
:100D500080819181AC014150510929813A81C901B9
:100D6000880F991F880F991F880F991F821B930B5B
:100D70008A5A9E4FFC015183408329813A81C901DF
:100D8000880F991F880F991F880F991F821B930B3B
:100D90008A5A9E4FFC0180819181009709F040C0E2
:100DA00029813A81C901880F991F880F991F880FDF
:100DB000991F821B930B865A9E4FFC018081482FFE
:100DC0004F5F29813A81C901880F991F880F991FA8
:100DD000880F991F821B930B865A9E4FFC014083FC
:100DE00029813A81C901880F991F880F991F880F9F
:100DF000991F821B930B885A9E4FFC0140815181A1
:100E000029813A81C901880F991F880F991F880F7E
:100E1000991F821B930B8A5A9E4FFC01518340837A
:100E200089819A8101969A83898380919A01909110
:100E30009B0141E029813A81281739070CF040E0F5
:100E4000442309F064CF0F900F90DF91CF91089564
:100E50001F920F9200905F000F9211242F933F93E7
:100E60004F935F936F937F938F939F93AF93BF93B2
:100E7000EF93FF93CF93DF93CDB7DEB70E947F064A
:100E8000DF91CF91FF91EF91BF91AF919F918F91A2
:100E90007F916F915F914F913F912F910F900092B1
:100EA0005F000F901F901895EE0FFF1F0590F491B3
:100EB000E02D099410E0C6E5D0E004C0FE010E94D8
:0E0EC00056072296C835D107C9F7F894FFCF20
:100ECE00010002000300FFFF0102030405060708EC
:100EDE00090A0B0C0D0E0F1000000000000000019F
:080EEE000000000200030400F3
:00000001FF
