S015000041767243616C63536F757263652E7372656302
S11300000C942A000C9447000C9447000C9447006D
S11300100C9447000C9447000C9447000C94470040
S11300200C9447000C9447000C9496030C944700DE
S11300300C9447000C9447000C9447000C94470020
S11300400C9447000C9447000C9447000C94470010
S11300500C94470011241FBECFE5D8E0DEBFCDBF0E
S113006010E0A0E6B0E0E8E8F7E002C005900D92E9
S1130070AA37B107D9F721E0AAE7B0E001C01D9281
S1130080A734B207E1F70E9469000C94C2030C94F0
S11300900000CF93DF9300D0CDB7DEB79A83898376
S11300A089819A81FC0180810F900F90DF91CF911B
S11300B00895CF93DF9300D0CDB7DEB79A838983B9
S11300C089819A81FC0181810F900F90DF91CF91FA
S11300D00895CF93DF93CDB7DEB76A970FB6F89440
S11300E0DEBF0FBECDBFCE0106960E94CF018AE0CF
S11300F090E09C838B8384E1E6E6F0E0DE011796D2
S113010001900D928A95E1F71A8219821FC08981A4
S11301109A81880F991F9E012F5F3F4F820F931F73
S11301200696FC0120813181CE010696B9010E9418
S1130130E701CE0105960E94B000CE0105960E940B
S1130140DB0189819A8101969A83898321E08981DF
S11301509A818A3091050CF020E02223C1F6FFCF6A
S1130160CF93DF9300D000D0CDB7DEB79C838B83D1
S11301708B819C810E94FE019A83898389819A8163
S11301800E94C9000F900F900F900F90DF91CF91B4
S113019008950F931F93CF93DF9300D0CDB7DEB7AD
S11301A09A838983CE0101960E945900982F81E099
S11301B0913009F080E0882309F19091FA0081E000
S11301C08927882349F0809160009091610001960D
S11301D09093610080936000009160001091610031
S11301E0CE0101960E944900282FC80186589F4FCE
S11301F0FC01208381E08093FA0025C0CE010196A2
S11302000E945900982F81E0953009F080E08823FE
S1130210D1F080916000909161000196909361000B
S1130220809360000091600010916100CE010196FE
S11302300E944900282FC80186589F4FFC01208343
S11302401092FA0000000F900F90DF91CF911F9150
S11302500F910895CF93DF9300D0CDB7DEB79A8383
S113026089830F900F90DF91CF910895CF93DF93FF
S113027000D01F92CDB7DEB79A8389836B838981BF
S11302809A810E942A0189819A812B81FC01208311
S113029089819A8121E0FC0121830F900F900F90B6
S11302A0DF91CF910895CF93DF9300D0CDB7DEB720
S11302B09A8389830F900F90DF91CF910895CF9304
S11302C0DF9300D000D0CDB7DEB79A8389837C83D7
S11302D06B8389819A810E942A012B8189819A8169
S11302E0FC01208389819A8122E0FC0121830F9003
S11302F00F900F900F90DF91CF910895CF93DF93DC
S113030000D0CDB7DEB79A83898389819A810E9410
S11303102A0189819A81FC01108289819A8123E0D2
S1130320FC0121830F900F90DF91CF910895CF931B
S1130330DF9300D0CDB7DEB79A83898389819A8110
S11303400E942A0189819A81FC01108289819A8103
S113035024E0FC0121830F900F90DF91CF91089549
S1130360CF93DF9300D000D0CDB7DEB79A838983D3
S11303707C836B8389819A810E942A012B818981E4
S11303809A81FC01208389819A8125E0FC012183E3
S11303900F900F900F900F90DF91CF910895CF930E
S11303A0DF9300D0CDB7DEB79A8389830F900F9087
S11303B0DF91CF910895CF93DF9300D0CDB7DEB70F
S11303C09A8389830F900F90DF91CF910895CF93F3
S11303D0DF9300D000D0CDB7DEB79A8389837C83C6
S11303E06B838B819C819093FE008093FD000F9022
S11303F00F900F900F90DF91CF9108950F931F935B
S1130400CF93DF93CDB7DEB72E970FB6F894DEBF48
S11304100FBECDBF9E878D878091FD009091FE0019
S11304208430910521F08D859E850E94DB028091A8
S1130430FD009091FE0084309105A1F48D859E8588
S11304400E94BA028E599F4FFC012081CE010B9667
S1130450622F0E9436010B851C85CE010B960E94EB
S113046053017CC08091FD009091FE008370992718
S11304700097A1F48091FD009091FE0099230CF463
S1130480039695958795959587959C01CE01099638
S1130490B9010E945F0109851A8560C08091FD0041
S11304A09091FE008D30910539F4CE0107960E949B
S11304B07E010F81188552C08091FD009091FE004D
S11304C08F30910539F4CE0105960E9497010D8174
S11304D01E8144C080E390E09A8389838091FD006B
S11304E09091FE00843091055CF48091FD00909120
S11304F0FE0029813A81820F931F9A83898325C044
S11305008091FD009091FE008830910564F4809103
S1130510FD009091FE00019729813A81820F931F7B
S11305209A83898312C08091FD009091FE008C30E3
S113053091055CF48091FD009091FE000297298161
S11305403A81820F931F9A83898329813A81CE014C
S11305500396B9010E94B0010B811C81C8012E963B
S11305600FB6F894DEBF0FBECDBFDF91CF911F91C0
S11305700F910895CF93DF9300D0CDB7DEB79A8360
S113058089838091FB009091FC0001969093FC007C
S11305908093FB008091FB009091FC008370907825
S11305A0992324F401978C6F9F6F01960F900F90FD
S11305B0DF91CF910895CF93DF9300D0CDB7DEB70D
S11305C09A83898383E090E09093FC008093FB00FE
S11305D00F900F90DF91CF910895CF93DF9300D0C8
S11305E0CDB7DEB71A8219828EC029813A81C9013A
S11305F0880F991F880F991F880F991F821B930BCF
S11306008F5F9E4FFC0180819181009709F476C031
S113061029813A81C901880F991F880F991F880F72
S1130620991F821B930B8F5F9E4FFC0180819181E8
S1130630AC014150510929813A81C901880F991FA0
S1130640880F991F880F991F821B930B8F5F9E4FF2
S1130650FC015183408329813A81C901880F991F84
S1130660880F991F880F991F821B930B8F5F9E4FD2
S1130670FC0180819181009709F040C029813A8171
S1130680C901880F991F880F991F880F991F821B12
S1130690930B8B5F9E4FFC018081482F4F5F298114
S11306A03A81C901880F991F880F991F880F991FD4
S11306B0821B930B8B5F9E4FFC01408329813A81FF
S11306C0C901880F991F880F991F880F991F821BD2
S11306D0930B8D5F9E4FFC014081518129813A81AA
S11306E0C901880F991F880F991F880F991F821BB2
S11306F0930B8F5F9E4FFC015183408389819A81C4
S113070001969A838983809145019091460141E045
S113071029813A81281739070CF040E0442309F075
S113072064CF0F900F90DF91CF9108951F920F9295
S113073000905F000F9211242F933F934F935F9388
S11307406F937F938F939F93AF93BF93EF93FF9395
S1130750CF93DF93CDB7DEB70E94ED02DF91CF9147
S1130760FF91EF91BF91AF919F918F917F916F9185
S11307705F914F913F912F910F9000925F000F90E6
S10B07801F901895F894FFCFB7
S1130788FFFF2B2D2A2F01000200030004000100A3
S10D079802000400040001000F0039
S9030000FC
